S022000041746D65673332615F4D61737465725F636F6E74726F6C6C65722E73726563E0
S11300000C942A000C943C000C943C000C943C008E
S11300100C943C000C943C000C943C000C94740034
S11300200C943C000C943C000C943C000C943C005C
S11300300C943C000C943C000C943C000C943C004C
S11300400C943C000C943C000C943C000C943C003C
S11300500C943C0011241FBECFE5D8E0DEBFCDBF19
S113006020E0A0E6B0E001C01D92A036B207E1F79F
S11300700E945E000C94A7000C94000087B3806A71
S113008087BB8DB1816D8DB97894089510BC8FE5CF
S113009089B988E18AB98EE880BD08955D9BFECF59
S11300A08CB99BB381E089278BBB089512BE8FB9AD
S11300B0779BFECF82B70E944E0008950E943E00B7
S11300C00E9446008AB387608ABB1BBA83B78160EB
S11300D083BF8EB58A608EBD89B7806189BF83ED89
S11300E093E09BBD8ABDFFCF1F920F920FB60F9274
S11300F011242F933F934F935F936F937F938F9329
S11301009F93AF93BF93EF93FF939BB382E08927B1
S11301108BBB81E00E9456009BB384E098279BBB75
S11301209BB398279BBB9BB389278BBBFF91EF9114
S1130130BF91AF919F918F917F916F915F914F91FB
S11301403F912F910F900FBE0F901F901895F89428
S1050150FFCFDB
S9030000FC
