S022000041746D6567613332615F536C6176655F636F6E74726F6C6C65722E73726563F0
S11300000C942A000C943C000C943C000C943C008E
S11300100C943C000C943C000C943C000C943C006C
S11300200C943C000C943C000C943C000C943C005C
S11300300C943C000C943C000C943C000C943C004C
S11300400C943C000C943C000C943C000C943C003C
S11300500C943C0011241FBECFE5D8E0DEBFCDBF19
S113006020E0A0E6B0E001C01D92A136B207E1F79E
S11300700E9447000C9453000C940000BE9A6E9AA0
S11300800895DA9A8FB9779BFECF8FB108958AB31A
S113009087608ABB1BBA0E943E0080E00E94410038
S10D00A080936000FACFF894FFCFBC
S9030000FC
